{
  "contractName": "Election",
  "abi": [
    {
      "inputs": [],
      "payable": false,
      "stateMutability": "nonpayable",
      "type": "constructor"
    },
    {
      "anonymous": false,
      "inputs": [
        {
          "indexed": true,
          "internalType": "uint256",
          "name": "_candidateId",
          "type": "uint256"
        }
      ],
      "name": "AddedEvent",
      "type": "event"
    },
    {
      "anonymous": false,
      "inputs": [
        {
          "indexed": true,
          "internalType": "uint256",
          "name": "_candidateId",
          "type": "uint256"
        }
      ],
      "name": "DeletedEvent",
      "type": "event"
    },
    {
      "anonymous": false,
      "inputs": [
        {
          "indexed": false,
          "internalType": "bool",
          "name": "end",
          "type": "bool"
        }
      ],
      "name": "VotingEndedEvent",
      "type": "event"
    },
    {
      "anonymous": false,
      "inputs": [
        {
          "indexed": false,
          "internalType": "bool",
          "name": "start",
          "type": "bool"
        }
      ],
      "name": "VotingStartedEvent",
      "type": "event"
    },
    {
      "anonymous": false,
      "inputs": [
        {
          "indexed": true,
          "internalType": "uint256",
          "name": "_candidateId",
          "type": "uint256"
        }
      ],
      "name": "votedEvent",
      "type": "event"
    },
    {
      "constant": true,
      "inputs": [],
      "name": "candidateCount",
      "outputs": [
        {
          "internalType": "uint256",
          "name": "",
          "type": "uint256"
        }
      ],
      "payable": false,
      "stateMutability": "view",
      "type": "function"
    },
    {
      "constant": true,
      "inputs": [
        {
          "internalType": "uint256",
          "name": "",
          "type": "uint256"
        }
      ],
      "name": "candidates",
      "outputs": [
        {
          "internalType": "uint256",
          "name": "id",
          "type": "uint256"
        },
        {
          "internalType": "string",
          "name": "name",
          "type": "string"
        },
        {
          "internalType": "uint256",
          "name": "voteCount",
          "type": "uint256"
        },
        {
          "internalType": "string",
          "name": "party",
          "type": "string"
        },
        {
          "internalType": "string",
          "name": "qualification",
          "type": "string"
        }
      ],
      "payable": false,
      "stateMutability": "view",
      "type": "function"
    },
    {
      "constant": true,
      "inputs": [],
      "name": "candidatesCount",
      "outputs": [
        {
          "internalType": "uint256",
          "name": "",
          "type": "uint256"
        }
      ],
      "payable": false,
      "stateMutability": "view",
      "type": "function"
    },
    {
      "constant": true,
      "inputs": [],
      "name": "owner",
      "outputs": [
        {
          "internalType": "address",
          "name": "",
          "type": "address"
        }
      ],
      "payable": false,
      "stateMutability": "view",
      "type": "function"
    },
    {
      "constant": true,
      "inputs": [
        {
          "internalType": "address",
          "name": "",
          "type": "address"
        }
      ],
      "name": "voters",
      "outputs": [
        {
          "internalType": "bool",
          "name": "",
          "type": "bool"
        }
      ],
      "payable": false,
      "stateMutability": "view",
      "type": "function"
    },
    {
      "constant": false,
      "inputs": [
        {
          "internalType": "string",
          "name": "_name",
          "type": "string"
        },
        {
          "internalType": "string",
          "name": "_party",
          "type": "string"
        },
        {
          "internalType": "string",
          "name": "qualification",
          "type": "string"
        }
      ],
      "name": "addCandidate",
      "outputs": [],
      "payable": false,
      "stateMutability": "nonpayable",
      "type": "function"
    },
    {
      "constant": false,
      "inputs": [
        {
          "internalType": "uint256",
          "name": "_id",
          "type": "uint256"
        }
      ],
      "name": "deleteCandidate",
      "outputs": [],
      "payable": false,
      "stateMutability": "nonpayable",
      "type": "function"
    },
    {
      "constant": false,
      "inputs": [
        {
          "internalType": "uint256",
          "name": "_candidateId",
          "type": "uint256"
        }
      ],
      "name": "vote",
      "outputs": [],
      "payable": false,
      "stateMutability": "nonpayable",
      "type": "function"
    },
    {
      "constant": true,
      "inputs": [],
      "name": "getOwner",
      "outputs": [
        {
          "internalType": "address",
          "name": "",
          "type": "address"
        }
      ],
      "payable": false,
      "stateMutability": "view",
      "type": "function"
    },
    {
      "constant": false,
      "inputs": [],
      "name": "startElection",
      "outputs": [],
      "payable": false,
      "stateMutability": "nonpayable",
      "type": "function"
    },
    {
      "constant": false,
      "inputs": [],
      "name": "endElection",
      "outputs": [],
      "payable": false,
      "stateMutability": "nonpayable",
      "type": "function"
    },
    {
      "constant": true,
      "inputs": [],
      "name": "getStart",
      "outputs": [
        {
          "internalType": "bool",
          "name": "",
          "type": "bool"
        }
      ],
      "payable": false,
      "stateMutability": "view",
      "type": "function"
    },
    {
      "constant": true,
      "inputs": [],
      "name": "getEnd",
      "outputs": [
        {
          "internalType": "bool",
          "name": "",
          "type": "bool"
        }
      ],
      "payable": false,
      "stateMutability": "view",
      "type": "function"
    }
  ],
  "bytecode": "0x60806040523480156200001157600080fd5b5033600160006101000a81548173ffffffffffffffffffffffffffffffffffffffff021916908373ffffffffffffffffffffffffffffffffffffffff160217905550600080819055506001600360006101000a81548160ff0219169083151502179055506000600360016101000a81548160ff021916908315150217905550620001426040518060400160405280600581526020017f546f6b796f0000000000000000000000000000000000000000000000000000008152506040518060400160405280600381526020017f424a5000000000000000000000000000000000000000000000000000000000008152506040518060400160405280600381526020017f422e450000000000000000000000000000000000000000000000000000000000815250620001fa60201b60201c565b620001f46040518060400160405280600381526020017f52696f00000000000000000000000000000000000000000000000000000000008152506040518060400160405280600881526020017f436f6e67726573730000000000000000000000000000000000000000000000008152506040518060400160405280600381526020017f622e610000000000000000000000000000000000000000000000000000000000815250620001fa60201b60201c565b620003fd565b600160009054906101000a900473ffffffffffffffffffffffffffffffffffffffff1673ffffffffffffffffffffffffffffffffffffffff163373ffffffffffffffffffffffffffffffffffffffff16146200025557600080fd5b6006600081548092919060010191905055506040518060a0016040528060065481526020018481526020016000815260200183815260200182815250600560006006548152602001908152602001600020600082015181600001556020820151816001019080519060200190620002ce9291906200034e565b50604082015181600201556060820151816003019080519060200190620002f79291906200034e565b506080820151816004019080519060200190620003169291906200034e565b509050506006547f940bfe3d6f567d46cdc7d090abe9a2b0349c957ba22070387fedf6adc77303d260405160405180910390a2505050565b828054600181600116156101000203166002900490600052602060002090601f016020900481019282601f106200039157805160ff1916838001178555620003c2565b82800160010185558215620003c2579182015b82811115620003c1578251825591602001919060010190620003a4565b5b509050620003d19190620003d5565b5090565b620003fa91905b80821115620003f6576000816000905550600101620003dc565b5090565b90565b610f62806200040d6000396000f3fe608060405234801561001057600080fd5b50600436106100cf5760003560e01c8063893d20e81161008c578063a3ec138d11610066578063a3ec138d146103a5578063a9a981a314610401578063ad71f8dc1461041f578063c5292c6714610608576100cf565b8063893d20e8146102ef5780638da5cb5b146103395780639f05a36d14610383576100cf565b80630121b93f146100d45780631e620cd4146101025780632d35a8a2146101305780633477ee2e1461014e57806359f78468146102db57806362d73eb8146102e5575b600080fd5b610100600480360360208110156100ea57600080fd5b810190808035906020019092919050505061062a565b005b61012e6004803603602081101561011857600080fd5b81019080803590602001909291905050506107b3565b005b610138610893565b6040518082815260200191505060405180910390f35b61017a6004803603602081101561016457600080fd5b8101908080359060200190929190505050610899565b60405180868152602001806020018581526020018060200180602001848103845288818151815260200191508051906020019080838360005b838110156101ce5780820151818401526020810190506101b3565b50505050905090810190601f1680156101fb5780820380516001836020036101000a031916815260200191505b50848103835286818151815260200191508051906020019080838360005b83811015610234578082015181840152602081019050610219565b50505050905090810190601f1680156102615780820380516001836020036101000a031916815260200191505b50848103825285818151815260200191508051906020019080838360005b8381101561029a57808201518184015260208101905061027f565b50505050905090810190601f1680156102c75780820380516001836020036101000a031916815260200191505b509850505050505050505060405180910390f35b6102e3610a97565b005b6102ed610b73565b005b6102f7610c4f565b604051808273ffffffffffffffffffffffffffffffffffffffff1673ffffffffffffffffffffffffffffffffffffffff16815260200191505060405180910390f35b610341610c79565b604051808273ffffffffffffffffffffffffffffffffffffffff1673ffffffffffffffffffffffffffffffffffffffff16815260200191505060405180910390f35b61038b610c9f565b604051808215151515815260200191505060405180910390f35b6103e7600480360360208110156103bb57600080fd5b81019080803573ffffffffffffffffffffffffffffffffffffffff169060200190929190505050610cb6565b604051808215151515815260200191505060405180910390f35b610409610cd6565b6040518082815260200191505060405180910390f35b6106066004803603606081101561043557600080fd5b810190808035906020019064010000000081111561045257600080fd5b82018360208201111561046457600080fd5b8035906020019184600183028401116401000000008311171561048657600080fd5b91908080601f016020809104026020016040519081016040528093929190818152602001838380828437600081840152601f19601f820116905080830192505050505050509192919290803590602001906401000000008111156104e957600080fd5b8201836020820111156104fb57600080fd5b8035906020019184600183028401116401000000008311171561051d57600080fd5b91908080601f016020809104026020016040519081016040528093929190818152602001838380828437600081840152601f19601f8201169050808301925050505050505091929192908035906020019064010000000081111561058057600080fd5b82018360208201111561059257600080fd5b803590602001918460018302840111640100000000831117156105b457600080fd5b91908080601f016020809104026020016040519081016040528093929190818152602001838380828437600081840152601f19601f820116905080830192505050505050509192919290505050610cdc565b005b610610610e29565b604051808215151515815260200191505060405180910390f35b600460003373ffffffffffffffffffffffffffffffffffffffff1673ffffffffffffffffffffffffffffffffffffffff16815260200190815260200160002060009054906101000a900460ff16156106ea576040517f08c379a00000000000000000000000000000000000000000000000000000000081526004018080602001828103825260128152602001807f5573657220416c726561647920566f746564000000000000000000000000000081525060200191505060405180910390fd5b6000811180156106fc57506006548111155b61070557600080fd5b6001600460003373ffffffffffffffffffffffffffffffffffffffff1673ffffffffffffffffffffffffffffffffffffffff16815260200190815260200160002060006101000a81548160ff0219169083151502179055506005600082815260200190815260200160002060020160008154809291906001019190505550807ffff3c900d938d21d0990d786e819f29b8d05c1ef587b462b939609625b684b1660405160405180910390a250565b600160009054906101000a900473ffffffffffffffffffffffffffffffffffffffff1673ffffffffffffffffffffffffffffffffffffffff163373ffffffffffffffffffffffffffffffffffffffff161461080d57600080fd5b600560008281526020019081526020016000206000808201600090556001820160006108399190610e40565b60028201600090556003820160006108519190610e40565b6004820160006108619190610e40565b5050807f04c2d86b558533c9e99f34fdd95c51c75bad949c32b790c2c148ef8d4f7ae69a60405160405180910390a250565b60065481565b6005602052806000526040600020600091509050806000015490806001018054600181600116156101000203166002900480601f01602080910402602001604051908101604052809291908181526020018280546001816001161561010002031660029004801561094b5780601f106109205761010080835404028352916020019161094b565b820191906000526020600020905b81548152906001019060200180831161092e57829003601f168201915b505050505090806002015490806003018054600181600116156101000203166002900480601f0160208091040260200160405190810160405280929190818152602001828054600181600116156101000203166002900480156109ef5780601f106109c4576101008083540402835291602001916109ef565b820191906000526020600020905b8154815290600101906020018083116109d257829003601f168201915b505050505090806004018054600181600116156101000203166002900480601f016020809104026020016040519081016040528092919081815260200182805460018160011615610100020316600290048015610a8d5780601f10610a6257610100808354040283529160200191610a8d565b820191906000526020600020905b815481529060010190602001808311610a7057829003601f168201915b5050505050905085565b600160009054906101000a900473ffffffffffffffffffffffffffffffffffffffff1673ffffffffffffffffffffffffffffffffffffffff163373ffffffffffffffffffffffffffffffffffffffff1614610af157600080fd5b6001600360016101000a81548160ff0219169083151502179055506000600360006101000a81548160ff0219169083151502179055507f107a7006f49448d31cb07d5c77232af4e0e688baba4f35f29d6cb63e7b1e2b64600360019054906101000a900460ff16604051808215151515815260200191505060405180910390a1565b600160009054906101000a900473ffffffffffffffffffffffffffffffffffffffff1673ffffffffffffffffffffffffffffffffffffffff163373ffffffffffffffffffffffffffffffffffffffff1614610bcd57600080fd5b6001600360006101000a81548160ff0219169083151502179055506000600360016101000a81548160ff0219169083151502179055507fea4e1cac648de9d38a69ee4c1400912e41efc42b0f5c40095c32bb7528a8ba55600360009054906101000a900460ff16604051808215151515815260200191505060405180910390a1565b6000600160009054906101000a900473ffffffffffffffffffffffffffffffffffffffff16905090565b600160009054906101000a900473ffffffffffffffffffffffffffffffffffffffff1681565b6000600360019054906101000a900460ff16905090565b60046020528060005260406000206000915054906101000a900460ff1681565b60005481565b600160009054906101000a900473ffffffffffffffffffffffffffffffffffffffff1673ffffffffffffffffffffffffffffffffffffffff163373ffffffffffffffffffffffffffffffffffffffff1614610d3657600080fd5b6006600081548092919060010191905055506040518060a0016040528060065481526020018481526020016000815260200183815260200182815250600560006006548152602001908152602001600020600082015181600001556020820151816001019080519060200190610dad929190610e88565b50604082015181600201556060820151816003019080519060200190610dd4929190610e88565b506080820151816004019080519060200190610df1929190610e88565b509050506006547f940bfe3d6f567d46cdc7d090abe9a2b0349c957ba22070387fedf6adc77303d260405160405180910390a2505050565b6000600360009054906101000a900460ff16905090565b50805460018160011615610100020316600290046000825580601f10610e665750610e85565b601f016020900490600052602060002090810190610e849190610f08565b5b50565b828054600181600116156101000203166002900490600052602060002090601f016020900481019282601f10610ec957805160ff1916838001178555610ef7565b82800160010185558215610ef7579182015b82811115610ef6578251825591602001919060010190610edb565b5b509050610f049190610f08565b5090565b610f2a91905b80821115610f26576000816000905550600101610f0e565b5090565b9056fea265627a7a723158202596ac1a4f39da2fac32332ac567a371d23607d0132b3f2dbeb9e462ce2b4f6764736f6c63430005100032",
  "source": "pragma solidity ^0.5.16;\r\n\r\n\r\ncontract Election {\r\n    // Model a Candidate\r\n    struct Candidate {\r\n       uint id;\r\n        string name;\r\n        uint voteCount;\r\n        string party;\r\n        string qualification;\r\n    }\r\n\r\n    event votedEvent (\r\n        uint indexed _candidateId\r\n    );\r\n    event AddedEvent (\r\n        uint indexed _candidateId\r\n    );\r\n     event VotingStartedEvent (\r\n        bool start\r\n    );\r\n     event VotingEndedEvent (\r\n       bool end\r\n    );\r\n      event DeletedEvent (\r\n        uint indexed _candidateId\r\n    );\r\n    \r\n\r\nmodifier onlyAdmin() {\r\n   require(msg.sender == owner);\r\n   _;\r\n}   \r\n    uint public candidateCount;\r\n    address public owner;\r\n    uint voterCount;\r\n    bool start;\r\n    bool end;\r\n   \r\n\r\n    // Store accounts that have voted\r\n    mapping(address => bool) public voters;\r\n    // Read/write candidates\r\n    mapping(uint => Candidate) public candidates;\r\n    // Store Candidates Count\r\n    uint public candidatesCount;\r\n\r\n      constructor () public {  \r\n        owner = msg.sender;\r\n        candidateCount = 0;\r\n        start = true;\r\n        end = false;     \r\n\r\n        addCandidate(\"Tokyo\",\"BJP\",\"B.E\") ;\r\n        addCandidate(\"Rio\",\"Congress\",\"b.a\") ;\r\n    }\r\n\r\n    function addCandidate(string memory _name,string memory _party,string memory qualification) public onlyAdmin\r\n     {\r\n        candidatesCount ++;\r\n        candidates[candidatesCount]=Candidate(candidatesCount,_name,0,_party,qualification);\r\n         emit AddedEvent(candidatesCount);\r\n     \r\n    }    \r\n    \r\n    function deleteCandidate(uint _id) public onlyAdmin\r\n     {\r\n      \r\n        delete candidates[_id];\r\n         emit DeletedEvent(_id);\r\n     \r\n    }\r\n\r\n\r\n    function vote (uint _candidateId) public {\r\n        // require that they haven't voted before\r\n        require(!voters[msg.sender],\"User Already Voted\");\r\n\r\n        // require a valid candidate\r\n        require(_candidateId > 0 && _candidateId <= candidatesCount);\r\n\r\n        // record that voter has voted\r\n        voters[msg.sender] = true;\r\n\r\n        // update candidate vote Count\r\n        candidates[_candidateId].voteCount ++;\r\n           emit votedEvent(_candidateId);\r\n    }\r\n    \r\nfunction getOwner() public view returns (address) {\r\n   return owner;\r\n}\r\n\r\nfunction startElection() public onlyAdmin {\r\n   start = true;\r\n   end = false;\r\n   emit VotingStartedEvent(start);\r\n}\r\nfunction endElection() public onlyAdmin {\r\n   end = true;\r\n   start = false;\r\n\r\n   emit VotingEndedEvent(end);\r\n}\r\n\r\nfunction getStart() public view returns (bool) {\r\n   return start;\r\n  \r\n}\r\nfunction getEnd() public view returns (bool) {\r\n   return end;\r\n}\r\n\r\n}",
  "sourcePath": "C:\\Users\\umaja\\Documents\\GitHub\\voting  final BE\\React-Blockchain-master\\contracts\\Election.sol",
  "compiler": {
    "name": "solc",
    "version": "0.5.16+commit.9c3226ce.Emscripten.clang"
  },
  "schemaVersion": "3.4.3",
  "updatedAt": "2022-04-17T09:41:02.904Z",
  "networkType": "ethereum",
  "devdoc": {
    "methods": {}
  },
  "userdoc": {
    "methods": {}
  }
}