{
  "contractName": "Election",
  "abi": [
    {
      "inputs": [],
      "payable": false,
      "stateMutability": "nonpayable",
      "type": "constructor"
    },
    {
      "anonymous": false,
      "inputs": [
        {
          "indexed": true,
          "internalType": "uint256",
          "name": "_candidateId",
          "type": "uint256"
        }
      ],
      "name": "AddedEvent",
      "type": "event"
    },
    {
      "anonymous": false,
      "inputs": [
        {
          "indexed": true,
          "internalType": "uint256",
          "name": "_candidateId",
          "type": "uint256"
        }
      ],
      "name": "DeletedEvent",
      "type": "event"
    },
    {
      "anonymous": false,
      "inputs": [
        {
          "indexed": false,
          "internalType": "bool",
          "name": "end",
          "type": "bool"
        }
      ],
      "name": "VotingEndedEvent",
      "type": "event"
    },
    {
      "anonymous": false,
      "inputs": [
        {
          "indexed": false,
          "internalType": "bool",
          "name": "start",
          "type": "bool"
        }
      ],
      "name": "VotingStartedEvent",
      "type": "event"
    },
    {
      "anonymous": false,
      "inputs": [
        {
          "indexed": true,
          "internalType": "uint256",
          "name": "_candidateId",
          "type": "uint256"
        }
      ],
      "name": "votedEvent",
      "type": "event"
    },
    {
      "constant": true,
      "inputs": [],
      "name": "candidateCount",
      "outputs": [
        {
          "internalType": "uint256",
          "name": "",
          "type": "uint256"
        }
      ],
      "payable": false,
      "stateMutability": "view",
      "type": "function"
    },
    {
      "constant": true,
      "inputs": [
        {
          "internalType": "uint256",
          "name": "",
          "type": "uint256"
        }
      ],
      "name": "candidates",
      "outputs": [
        {
          "internalType": "uint256",
          "name": "id",
          "type": "uint256"
        },
        {
          "internalType": "string",
          "name": "name",
          "type": "string"
        },
        {
          "internalType": "uint256",
          "name": "voteCount",
          "type": "uint256"
        },
        {
          "internalType": "string",
          "name": "party",
          "type": "string"
        },
        {
          "internalType": "string",
          "name": "qualification",
          "type": "string"
        }
      ],
      "payable": false,
      "stateMutability": "view",
      "type": "function"
    },
    {
      "constant": true,
      "inputs": [],
      "name": "candidatesCount",
      "outputs": [
        {
          "internalType": "uint256",
          "name": "",
          "type": "uint256"
        }
      ],
      "payable": false,
      "stateMutability": "view",
      "type": "function"
    },
    {
      "constant": true,
      "inputs": [],
      "name": "owner",
      "outputs": [
        {
          "internalType": "address",
          "name": "",
          "type": "address"
        }
      ],
      "payable": false,
      "stateMutability": "view",
      "type": "function"
    },
    {
      "constant": true,
      "inputs": [],
      "name": "voteCount",
      "outputs": [
        {
          "internalType": "uint256",
          "name": "",
          "type": "uint256"
        }
      ],
      "payable": false,
      "stateMutability": "view",
      "type": "function"
    },
    {
      "constant": true,
      "inputs": [
        {
          "internalType": "address",
          "name": "",
          "type": "address"
        }
      ],
      "name": "voters",
      "outputs": [
        {
          "internalType": "bool",
          "name": "",
          "type": "bool"
        }
      ],
      "payable": false,
      "stateMutability": "view",
      "type": "function"
    },
    {
      "constant": false,
      "inputs": [
        {
          "internalType": "string",
          "name": "_name",
          "type": "string"
        },
        {
          "internalType": "string",
          "name": "_party",
          "type": "string"
        },
        {
          "internalType": "string",
          "name": "qualification",
          "type": "string"
        }
      ],
      "name": "addCandidate",
      "outputs": [],
      "payable": false,
      "stateMutability": "nonpayable",
      "type": "function"
    },
    {
      "constant": false,
      "inputs": [
        {
          "internalType": "uint256",
          "name": "_id",
          "type": "uint256"
        }
      ],
      "name": "deleteCandidate",
      "outputs": [],
      "payable": false,
      "stateMutability": "nonpayable",
      "type": "function"
    },
    {
      "constant": false,
      "inputs": [
        {
          "internalType": "uint256",
          "name": "_candidateId",
          "type": "uint256"
        }
      ],
      "name": "vote",
      "outputs": [],
      "payable": false,
      "stateMutability": "nonpayable",
      "type": "function"
    },
    {
      "constant": true,
      "inputs": [],
      "name": "getOwner",
      "outputs": [
        {
          "internalType": "address",
          "name": "",
          "type": "address"
        }
      ],
      "payable": false,
      "stateMutability": "view",
      "type": "function"
    },
    {
      "constant": false,
      "inputs": [],
      "name": "startElection",
      "outputs": [],
      "payable": false,
      "stateMutability": "nonpayable",
      "type": "function"
    },
    {
      "constant": false,
      "inputs": [],
      "name": "endElection",
      "outputs": [],
      "payable": false,
      "stateMutability": "nonpayable",
      "type": "function"
    },
    {
      "constant": true,
      "inputs": [],
      "name": "getStart",
      "outputs": [
        {
          "internalType": "bool",
          "name": "",
          "type": "bool"
        }
      ],
      "payable": false,
      "stateMutability": "view",
      "type": "function"
    },
    {
      "constant": true,
      "inputs": [],
      "name": "getEnd",
      "outputs": [
        {
          "internalType": "bool",
          "name": "",
          "type": "bool"
        }
      ],
      "payable": false,
      "stateMutability": "view",
      "type": "function"
    }
  ],
  "bytecode": "0x60806040523480156200001157600080fd5b5033600260006101000a81548173ffffffffffffffffffffffffffffffffffffffff021916908373ffffffffffffffffffffffffffffffffffffffff1602179055506000808190555060006001819055506001600460006101000a81548160ff0219169083151502179055506000600460016101000a81548160ff0219169083151502179055506200014a6040518060400160405280600581526020017f546f6b796f0000000000000000000000000000000000000000000000000000008152506040518060400160405280600381526020017f424a5000000000000000000000000000000000000000000000000000000000008152506040518060400160405280600381526020017f422e4500000000000000000000000000000000000000000000000000000000008152506200020260201b60201c565b620001fc6040518060400160405280600381526020017f52696f00000000000000000000000000000000000000000000000000000000008152506040518060400160405280600881526020017f436f6e67726573730000000000000000000000000000000000000000000000008152506040518060400160405280600381526020017f622e6100000000000000000000000000000000000000000000000000000000008152506200020260201b60201c565b62000405565b600260009054906101000a900473ffffffffffffffffffffffffffffffffffffffff1673ffffffffffffffffffffffffffffffffffffffff163373ffffffffffffffffffffffffffffffffffffffff16146200025d57600080fd5b6007600081548092919060010191905055506040518060a0016040528060075481526020018481526020016000815260200183815260200182815250600660006007548152602001908152602001600020600082015181600001556020820151816001019080519060200190620002d692919062000356565b50604082015181600201556060820151816003019080519060200190620002ff92919062000356565b5060808201518160040190805190602001906200031e92919062000356565b509050506007547f940bfe3d6f567d46cdc7d090abe9a2b0349c957ba22070387fedf6adc77303d260405160405180910390a2505050565b828054600181600116156101000203166002900490600052602060002090601f016020900481019282601f106200039957805160ff1916838001178555620003ca565b82800160010185558215620003ca579182015b82811115620003c9578251825591602001919060010190620003ac565b5b509050620003d99190620003dd565b5090565b6200040291905b80821115620003fe576000816000905550600101620003e4565b5090565b90565b610fb380620004156000396000f3fe608060405234801561001057600080fd5b50600436106100ea5760003560e01c80638da5cb5b1161008c578063a9a981a311610066578063a9a981a31461041c578063ad71f8dc1461043a578063c5292c6714610623578063c638407114610645576100ea565b80638da5cb5b146103545780639f05a36d1461039e578063a3ec138d146103c0576100ea565b80633477ee2e116100c85780633477ee2e1461016957806359f78468146102f657806362d73eb814610300578063893d20e81461030a576100ea565b80630121b93f146100ef5780631e620cd41461011d5780632d35a8a21461014b575b600080fd5b61011b6004803603602081101561010557600080fd5b8101908080359060200190929190505050610663565b005b6101496004803603602081101561013357600080fd5b81019080803590602001909291905050506107fe565b005b6101536108de565b6040518082815260200191505060405180910390f35b6101956004803603602081101561017f57600080fd5b81019080803590602001909291905050506108e4565b60405180868152602001806020018581526020018060200180602001848103845288818151815260200191508051906020019080838360005b838110156101e95780820151818401526020810190506101ce565b50505050905090810190601f1680156102165780820380516001836020036101000a031916815260200191505b50848103835286818151815260200191508051906020019080838360005b8381101561024f578082015181840152602081019050610234565b50505050905090810190601f16801561027c5780820380516001836020036101000a031916815260200191505b50848103825285818151815260200191508051906020019080838360005b838110156102b557808201518184015260208101905061029a565b50505050905090810190601f1680156102e25780820380516001836020036101000a031916815260200191505b509850505050505050505060405180910390f35b6102fe610ae2565b005b610308610bbe565b005b610312610c9a565b604051808273ffffffffffffffffffffffffffffffffffffffff1673ffffffffffffffffffffffffffffffffffffffff16815260200191505060405180910390f35b61035c610cc4565b604051808273ffffffffffffffffffffffffffffffffffffffff1673ffffffffffffffffffffffffffffffffffffffff16815260200191505060405180910390f35b6103a6610cea565b604051808215151515815260200191505060405180910390f35b610402600480360360208110156103d657600080fd5b81019080803573ffffffffffffffffffffffffffffffffffffffff169060200190929190505050610d01565b604051808215151515815260200191505060405180910390f35b610424610d21565b6040518082815260200191505060405180910390f35b6106216004803603606081101561045057600080fd5b810190808035906020019064010000000081111561046d57600080fd5b82018360208201111561047f57600080fd5b803590602001918460018302840111640100000000831117156104a157600080fd5b91908080601f016020809104026020016040519081016040528093929190818152602001838380828437600081840152601f19601f8201169050808301925050505050505091929192908035906020019064010000000081111561050457600080fd5b82018360208201111561051657600080fd5b8035906020019184600183028401116401000000008311171561053857600080fd5b91908080601f016020809104026020016040519081016040528093929190818152602001838380828437600081840152601f19601f8201169050808301925050505050505091929192908035906020019064010000000081111561059b57600080fd5b8201836020820111156105ad57600080fd5b803590602001918460018302840111640100000000831117156105cf57600080fd5b91908080601f016020809104026020016040519081016040528093929190818152602001838380828437600081840152601f19601f820116905080830192505050505050509192919290505050610d27565b005b61062b610e74565b604051808215151515815260200191505060405180910390f35b61064d610e8b565b6040518082815260200191505060405180910390f35b600560003373ffffffffffffffffffffffffffffffffffffffff1673ffffffffffffffffffffffffffffffffffffffff16815260200190815260200160002060009054906101000a900460ff1615610723576040517f08c379a00000000000000000000000000000000000000000000000000000000081526004018080602001828103825260128152602001807f5573657220416c726561647920566f746564000000000000000000000000000081525060200191505060405180910390fd5b60008111801561073557506007548111155b61073e57600080fd5b6001600560003373ffffffffffffffffffffffffffffffffffffffff1673ffffffffffffffffffffffffffffffffffffffff16815260200190815260200160002060006101000a81548160ff0219169083151502179055506001600081548092919060010191905055506006600082815260200190815260200160002060020160008154809291906001019190505550807ffff3c900d938d21d0990d786e819f29b8d05c1ef587b462b939609625b684b1660405160405180910390a250565b600260009054906101000a900473ffffffffffffffffffffffffffffffffffffffff1673ffffffffffffffffffffffffffffffffffffffff163373ffffffffffffffffffffffffffffffffffffffff161461085857600080fd5b600660008281526020019081526020016000206000808201600090556001820160006108849190610e91565b600282016000905560038201600061089c9190610e91565b6004820160006108ac9190610e91565b5050807f04c2d86b558533c9e99f34fdd95c51c75bad949c32b790c2c148ef8d4f7ae69a60405160405180910390a250565b60075481565b6006602052806000526040600020600091509050806000015490806001018054600181600116156101000203166002900480601f0160208091040260200160405190810160405280929190818152602001828054600181600116156101000203166002900480156109965780601f1061096b57610100808354040283529160200191610996565b820191906000526020600020905b81548152906001019060200180831161097957829003601f168201915b505050505090806002015490806003018054600181600116156101000203166002900480601f016020809104026020016040519081016040528092919081815260200182805460018160011615610100020316600290048015610a3a5780601f10610a0f57610100808354040283529160200191610a3a565b820191906000526020600020905b815481529060010190602001808311610a1d57829003601f168201915b505050505090806004018054600181600116156101000203166002900480601f016020809104026020016040519081016040528092919081815260200182805460018160011615610100020316600290048015610ad85780601f10610aad57610100808354040283529160200191610ad8565b820191906000526020600020905b815481529060010190602001808311610abb57829003601f168201915b5050505050905085565b600260009054906101000a900473ffffffffffffffffffffffffffffffffffffffff1673ffffffffffffffffffffffffffffffffffffffff163373ffffffffffffffffffffffffffffffffffffffff1614610b3c57600080fd5b6001600460016101000a81548160ff0219169083151502179055506000600460006101000a81548160ff0219169083151502179055507f107a7006f49448d31cb07d5c77232af4e0e688baba4f35f29d6cb63e7b1e2b64600460019054906101000a900460ff16604051808215151515815260200191505060405180910390a1565b600260009054906101000a900473ffffffffffffffffffffffffffffffffffffffff1673ffffffffffffffffffffffffffffffffffffffff163373ffffffffffffffffffffffffffffffffffffffff1614610c1857600080fd5b6001600460006101000a81548160ff0219169083151502179055506000600460016101000a81548160ff0219169083151502179055507fea4e1cac648de9d38a69ee4c1400912e41efc42b0f5c40095c32bb7528a8ba55600460009054906101000a900460ff16604051808215151515815260200191505060405180910390a1565b6000600260009054906101000a900473ffffffffffffffffffffffffffffffffffffffff16905090565b600260009054906101000a900473ffffffffffffffffffffffffffffffffffffffff1681565b6000600460019054906101000a900460ff16905090565b60056020528060005260406000206000915054906101000a900460ff1681565b60005481565b600260009054906101000a900473ffffffffffffffffffffffffffffffffffffffff1673ffffffffffffffffffffffffffffffffffffffff163373ffffffffffffffffffffffffffffffffffffffff1614610d8157600080fd5b6007600081548092919060010191905055506040518060a0016040528060075481526020018481526020016000815260200183815260200182815250600660006007548152602001908152602001600020600082015181600001556020820151816001019080519060200190610df8929190610ed9565b50604082015181600201556060820151816003019080519060200190610e1f929190610ed9565b506080820151816004019080519060200190610e3c929190610ed9565b509050506007547f940bfe3d6f567d46cdc7d090abe9a2b0349c957ba22070387fedf6adc77303d260405160405180910390a2505050565b6000600460009054906101000a900460ff16905090565b60015481565b50805460018160011615610100020316600290046000825580601f10610eb75750610ed6565b601f016020900490600052602060002090810190610ed59190610f59565b5b50565b828054600181600116156101000203166002900490600052602060002090601f016020900481019282601f10610f1a57805160ff1916838001178555610f48565b82800160010185558215610f48579182015b82811115610f47578251825591602001919060010190610f2c565b5b509050610f559190610f59565b5090565b610f7b91905b80821115610f77576000816000905550600101610f5f565b5090565b9056fea265627a7a72315820c7016bc3a6dcdff172d027db8410195dc00dd38b9ee6666250aa1a8e9d6e0e9b64736f6c63430005100032",
  "source": "pragma solidity ^0.5.16;\r\n\r\n\r\ncontract Election {\r\n    // Model a Candidate\r\n    struct Candidate {\r\n         uint id;\r\n        string name;\r\n        uint voteCount;\r\n        string party;\r\n        string qualification;\r\n    }\r\n\r\n    event votedEvent (\r\n        uint indexed _candidateId\r\n    );\r\n    event AddedEvent (\r\n        uint indexed _candidateId\r\n    );\r\n     event VotingStartedEvent (\r\n        bool start\r\n    );\r\n     event VotingEndedEvent (\r\n       bool end\r\n    );\r\n      event DeletedEvent (\r\n        uint indexed _candidateId\r\n    );\r\n    \r\n\r\nmodifier onlyAdmin() {\r\n   require(msg.sender == owner);\r\n   _;\r\n}   \r\n    uint public candidateCount;\r\n     uint public voteCount;\r\n    address public owner;\r\n    uint voterCount;\r\n    bool start;\r\n    bool end;\r\n   \r\n\r\n    // Store accounts that have voted\r\n    mapping(address => bool) public voters;\r\n    // Read/write candidates\r\n    mapping(uint => Candidate) public candidates;\r\n    // Store Candidates Count\r\n    uint public candidatesCount;\r\n\r\n      constructor () public {  \r\n        owner = msg.sender;\r\n        candidateCount = 0;\r\n        voteCount=0;\r\n        start = true;\r\n        end = false;     \r\n\r\n        addCandidate(\"Tokyo\",\"BJP\",\"B.E\") ;\r\n        addCandidate(\"Rio\",\"Congress\",\"b.a\") ;\r\n    }\r\n\r\n    function addCandidate(string memory _name,string memory _party,string memory qualification) public onlyAdmin\r\n     {\r\n        candidatesCount ++;\r\n        candidates[candidatesCount]=Candidate(candidatesCount,_name,0,_party,qualification);\r\n         emit AddedEvent(candidatesCount);\r\n     \r\n    }    \r\n    \r\n    function deleteCandidate(uint _id) public onlyAdmin\r\n     {\r\n      \r\n        delete candidates[_id];\r\n         emit DeletedEvent(_id);\r\n     \r\n    }\r\n\r\n\r\n    function vote (uint _candidateId) public {\r\n        // require that they haven't voted before\r\n        require(!voters[msg.sender],\"User Already Voted\");\r\n\r\n        // require a valid candidate\r\n        require(_candidateId > 0 && _candidateId <= candidatesCount);\r\n\r\n        // record that voter has voted\r\n        voters[msg.sender] = true;\r\n        voteCount++;\r\n\r\n        // update candidate vote Count\r\n        candidates[_candidateId].voteCount ++;\r\n       emit votedEvent(_candidateId);\r\n    }\r\n    \r\nfunction getOwner() public view returns (address) {\r\n   return owner;\r\n}\r\n\r\nfunction startElection() public onlyAdmin {\r\n   start = true;\r\n   end = false;\r\n   emit VotingStartedEvent(start);\r\n}\r\nfunction endElection() public onlyAdmin {\r\n   end = true;\r\n   start = false;\r\n\r\n   emit VotingEndedEvent(end);\r\n}\r\n\r\nfunction getStart() public view returns (bool) {\r\n   return start;\r\n  \r\n}\r\nfunction getEnd() public view returns (bool) {\r\n   return end;\r\n}\r\n\r\n}",
  "sourcePath": "C:\\Users\\umaja\\Documents\\GitHub\\voting  final BE\\React-Blockchain-master\\contracts\\Election.sol",
  "compiler": {
    "name": "solc",
    "version": "0.5.16+commit.9c3226ce.Emscripten.clang"
  },
  "schemaVersion": "3.4.3",
  "updatedAt": "2022-05-01T10:42:23.728Z",
  "networkType": "ethereum",
  "devdoc": {
    "methods": {}
  },
  "userdoc": {
    "methods": {}
  }
}